:100000000C945D000C9485000C9485000C94850084
:100010000C9485000C9485000C9485000C9485004C
:100020000C9485000C9485000C9485000C9485003C
:100030000C9485000C9485000C9485000C9485002C
:100040000C9496020C9485000C9464020C943E026D
:100050000C9485000C9485000C9485000C9485000C
:100060000C9485000C94850000000008000201003B
:100070000003040700000000000000000000000072
:10008000250028002B0000000000240027002A0083
:10009000040404040404040402020202020203032E
:1000A0000303030301020408102040800102040836
:1000B0001020010204081020A90411241FBECFEF54
:1000C000D8E0DEBFCDBF11E0A0E0B1E0E2E8FEE0A5
:1000D00002C005900D92A232B107D9F721E0A2E249
:1000E000B1E001C01D92A03DB207E1F710E0CDE5FF
:1000F000D0E004C02197FE010E94F804CC35D1075E
:10010000C9F70E94E0020C943F070C94000090E0B5
:10011000FC01EC55FF4F2491FC01E057FF4F849107
:10012000882399F090E0880F991FFC01EA57FF4F50
:10013000A591B491FC01E458FF4F859194918FB73C
:10014000F894EC91E22BEC938FBF0895CF92DF925D
:10015000EF92FF920F931F93CF93DF936C017A017D
:100160008B01C0E0D0E0CE15DF0589F0D8016D919C
:100170008D01D601ED91FC910190F081E02DC60139
:100180000995892B11F47E0102C02196ECCFC7019D
:10019000DF91CF911F910F91FF90EF90DF90CF9063
:1001A0000895FC01918D828D981761F0828DDF0199
:1001B000A80FB11D5D968C91928D9F5F9F73928F5A
:1001C00090E008958FEF9FEF0895FC01918D828D4F
:1001D000981731F0828DE80FF11D858D90E008951C
:1001E0008FEF9FEF0895FC01918D228D892F90E074
:1001F000805C9F4F821B91098F739927089583E339
:1002000091E00E94F30021E0892B09F420E0822F85
:100210000895FC01848DDF01A80FB11DA35ABF4FC3
:100220002C91848D90E001968F739927848FA689F5
:10023000B7892C93A089B1898C9180648C93938D1C
:10024000848D981306C00288F389E02D80818F7D0C
:1002500080830895EF92FF920F931F93CF93DF93C4
:10026000EC0181E0888F9B8D8C8D981305C0E88907
:10027000F989808185FD24C0F62E0B8D10E00F5F7B
:100280001F4F0F731127E02E8C8DE8120CC00FB694
:1002900007FCFACFE889F989808185FFF5CFCE0187
:1002A0000E940901F1CF8B8DFE01E80FF11DE35A89
:1002B000FF4FF0820B8FEA89FB898081806207C043
:1002C000EE89FF896083E889F98980818064808371
:1002D00081E090E0DF91CF911F910F91FF90EF901F
:1002E0000895CF93DF93EC01888D8823C9F0EA89C4
:1002F000FB89808185FD05C0A889B9898C9186FD1F
:100300000FC00FB607FCF5CF808185FFF2CFA8891B
:10031000B9898C9185FFEDCFCE010E940901E7CF0D
:10032000DF91CF91089580E090E0892B29F00E9421
:10033000FF0081110C940000089590E0FC01E85941
:10034000FF4F3491FC01EC55FF4F2491FC01E05725
:10035000FF4FE491EE2309F43BC0332339F13330EE
:1003600091F038F43130A9F0323001F584B58F7D49
:1003700012C0373091F03830A1F03430B9F48091A8
:1003800080008F7D03C0809180008F7780938000F4
:100390000DC084B58F7784BD09C08091B0008F7780
:1003A00003C08091B0008F7D8093B000F0E0EE0F2D
:1003B000FF1FE458FF4FA591B4918FB7F894EC91CB
:1003C000611103C020952E2301C02E2B2C938FBFCB
:1003D0000895009769F0FC0101900020E9F731973A
:1003E000AF01481B590BBC0183E391E00C94A600BC
:1003F00080E090E008958F929F92AF92BF920F930A
:100400001F93CF93DF93CDB7DEB7A1970FB6F894C4
:10041000DEBF0FBECDBF19A2423008F44AE08E0104
:100420000F5D1F4F842E912CA12CB12CA50194019E
:100430000E94D604E62FB901CA0101501109EA3021
:1004400014F4E05D01C0E95CD801EC93232B242B6C
:10045000252B61F7C8010E94E901A1960FB6F89417
:10046000DEBF0FBECDBFDF91CF911F910F91BF9027
:10047000AF909F908F9008950E943A071F920F921D
:100480000FB60F9211242F933F934F935F936F9367
:100490007F938F939F93AF93BF93EF93FF9383E3E8
:1004A00091E00E940901FF91EF91BF91AF919F915F
:1004B0008F917F916F915F914F913F912F910F900D
:1004C0000FBE0F901F9018951F920F920FB60F92AC
:1004D00011242F938F939F93EF93FF93E091430108
:1004E000F09144018081E0914901F0914A0182FD3F
:1004F00012C0908180914C018F5F8F7320914D01CC
:10050000821751F0E0914C01F0E0ED5CFE4F958FC9
:1005100080934C0101C08081FF91EF919F918F9159
:100520002F910F900FBE0F901F9018951F920F9252
:100530000FB60F9211242F933F938F939F93AF93F6
:10054000BF938091270190912801A0912901B0913A
:100550002A013091260123E0230F2D3720F4019644
:10056000A11DB11D05C026E8230F0296A11DB11DD6
:10057000209326018093270190932801A0932901BD
:10058000B0932A018091220190912301A09124012E
:10059000B09125010196A11DB11D80932201909378
:1005A0002301A0932401B0932501BF91AF919F91A6
:1005B0008F913F912F910F900FBE0F901F90189524
:1005C000789484B5826084BD84B5816084BD85B52E
:1005D000826085BD85B5816085BD80916E0081603A
:1005E00080936E00109281008091810082608093E0
:1005F00081008091810081608093810080918000E2
:100600008160809380008091B10084608093B1000C
:100610008091B00081608093B00080917A00846006
:1006200080937A0080917A00826080937A00809132
:100630007A00816080937A0080917A00806880934C
:100640007A001092C1002FB7F89480912701909101
:100650002801A0912901B0912A012FBF80932B017D
:1006600090932C01A0932D01B0932E018DE00E9458
:1006700087008CE00E948700E0914301F0914401E3
:1006800082E08083E0913F01F09140011082E0918F
:100690004101F09142018FEC808310924B01E09177
:1006A0004701F091480186E08083E0914501F09197
:1006B0004601808180618083E0914501F09146018F
:1006C000808188608083E0914501F09146018081BE
:1006D00080688083E0914501F091460180818F7DA3
:1006E0008083C0E4C0937C0080917A008064809312
:1006F0007A0080917A0086FDFCCF6091780080912D
:10070000790070E0782B072E000C880B990B0E9463
:10071000130620E030E040EA50E40E94C80620E0E2
:1007200030EC4FE754E40E94700560932F01709302
:10073000300180933101909332012FB7F89480916A
:10074000270190912801A0912901B0912A012FBF82
:1007500040912B0150912C0160912D0170912E013F
:10076000841B950BA60BB70B883E9340A105B105E2
:1007700008F4C2C0C0902F01D0903001E090310148
:10078000F0903201A7019601C701B6010E9435071A
:10079000882319F080E191E01AC046015701E894DE
:1007A000B7F82FEF3FEF4FE75FE7C501B4010E94B5
:1007B000350781110FC02FEF3FEF4FE75FE7C5010E
:1007C000B4010E946B0518162CF484E191E00E949C
:1007D000E9017BC02FEF3FEF4FE75FE4C701B601B0
:1007E0000E94C30618161CF488E191E0F0CF2FEFA9
:1007F0003FEF4FE75FECC701B6010E946B0587FD35
:10080000F3CF20E030E0A901C701B6010E946B05DB
:1008100087FF0FC0E0913301F09134010190F08126
:10082000E02D6DE283E391E00995F7FAF094F7F893
:10083000F0942AE037ED43EA5BE3C701B6010E947A
:10084000FF044B015C010E94E2056B017C010E94E8
:1008500011069B01AC01C501B4010E94FE044B01CD
:100860005C014AE0C701B6010E94FB018CE191E006
:100870000E94E90120E030E040E251E4C501B4010A
:100880000E94C8064B015C010E94E2056B01E12C4D
:10089000F12C4AE0C701B6010E94FB01C701B60175
:1008A0000E9411069B01AC01C501B4010E94FE0427
:1008B00020E030E040E251E40E94C8060E94E205D8
:1008C00080E090E04AE00E94FB018EE191E00E940E
:1008D000E9012FB7F8948091270190912801A09108
:1008E0002901B0912A012FBF80932B0190932C01F5
:1008F000A0932D01B0932E01C0902F01D090300114
:10090000E0903101F090320120E030E040E450E42A
:10091000C701B6010E94C306181634F461E08DE0E9
:100920000E949D0161E00FC020E030E040E250E411
:10093000C701B6010E946B0587FF08C060E08DE02B
:100940000E949D0160E08CE00E949D010E94930145
:10095000C9CEE3E3F1E01382128288EE93E0A0E0D7
:10096000B0E084839583A683B78384E091E091838C
:10097000808385EC90E09587848784EC90E097876E
:10098000868780EC90E0918B808B81EC90E0938B5C
:10099000828B82EC90E0958B848B86EC90E0978B39
:1009A000868B118E128E138E148E0895A1E21A2E4C
:1009B000AA1BBB1BFD010DC0AA1FBB1FEE1FFF1F03
:1009C000A217B307E407F50720F0A21BB30BE40B53
:1009D000F50B661F771F881F991F1A9469F760959A
:1009E0007095809590959B01AC01BD01CF01089554
:1009F000EE0FFF1F0590F491E02D09945058BB278E
:100A0000AA270E9416050C9489060E947B0638F0DE
:100A10000E94820620F039F49F3F19F426F40C94CA
:100A200078060EF4E095E7FB0C947206E92F0E941D
:100A30009A0658F3BA17620773078407950720F0E0
:100A400079F4A6F50C94BC060EF4E0950B2EBA2FA3
:100A5000A02D0B01B90190010C01CA01A0011124C4
:100A6000FF27591B99F0593F50F4503E68F11A1670
:100A7000F040A22F232F342F4427585FF3CF469501
:100A800037952795A795F0405395C9F77EF41F1623
:100A9000BA0B620B730B840BBAF09150A1F0FF0FED
:100AA000BB1F661F771F881FC2F70EC0BA0F621FD9
:100AB000731F841F48F4879577956795B795F795C9
:100AC0009E3F08F0B0CF9395880F08F09927EE0F5E
:100AD0009795879508950E944E0608F481E0089541
:100AE0000E9484050C9489060E94820658F00E9498
:100AF0007B0640F029F45F3F29F00C9472065111F7
:100B00000C94BD060C9478060E949A0668F399230B
:100B1000B1F3552391F3951B550BBB27AA276217F9
:100B20007307840738F09F5F5F4F220F331F441F06
:100B3000AA1FA9F335D00E2E3AF0E0E832D091503A
:100B40005040E695001CCAF72BD0FE2F29D0660F27
:100B5000771F881FBB1F261737074807AB07B0E86A
:100B600009F0BB0B802DBF01FF2793585F4F3AF070
:100B70009E3F510578F00C9472060C94BD065F3FC1
:100B8000E4F3983ED4F3869577956795B795F795F6
:100B90009F5FC9F7880F911D9695879597F90895DE
:100BA000E1E0660F771F881FBB1F6217730784077A
:100BB000BA0720F0621B730B840BBA0BEE1F88F789
:100BC000E09508950E94A20688F09F5798F0B92FEB
:100BD0009927B751B0F0E1F0660F771F881F991F72
:100BE0001AF0BA95C9F714C0B13091F00E94BC0652
:100BF000B1E008950C94BC06672F782F8827B85F62
:100C000039F0B93FCCF3869577956795B395D9F7C9
:100C10003EF490958095709561957F4F8F4F9F4FD3
:100C20000895E89409C097FB3EF4909580957095DF
:100C300061957F4F8F4F9F4F9923A9F0F92F96E928
:100C4000BB279395F695879577956795B795F1119D
:100C5000F8CFFAF4BB0F11F460FF1BC06F5F7F4F3A
:100C60008F4F9F4F16C0882311F096E911C077234C
:100C700021F09EE8872F762F05C0662371F096E855
:100C8000862F70E060E02AF09A95660F771F881F24
:100C9000DAF7880F9695879597F90895990F0008C8
:100CA000550FAA0BE0E8FEEF16161706E807F9073E
:100CB000C0F012161306E407F50798F0621B730BD9
:100CC000840B950B39F40A2661F0232B242B252B5A
:100CD00021F408950A2609F4A140A6958FEF811DFD
:100CE000811D089597F99F6780E870E060E008959E
:100CF0009FEF80EC089500240A9416161706180634
:100D00000906089500240A9412161306140605060F
:100D10000895092E0394000C11F4882352F0BB0FA0
:100D200040F4BF2B11F460FF04C06F5F7F4F8F4F03
:100D30009F4F089557FD9058440F551F59F05F3F3E
:100D400071F04795880F97FB991F61F09F3F79F0ED
:100D500087950895121613061406551FF2CF46956F
:100D6000F1DF08C0161617061806991FF1CF8695F1
:100D70007105610508940895E894BB2766277727D5
:100D8000CB0197F908950E944E0608F48FEF08955D
:100D90000E94DB060C9489060E947B0638F00E94B4
:100DA000820620F0952311F00C9472060C947806BC
:100DB00011240C94BD060E949A0670F3959FC1F30E
:100DC000950F50E0551F629FF001729FBB27F00DF9
:100DD000B11D639FAA27F00DB11DAA1F649F66274E
:100DE000B00DA11D661F829F2227B00DA11D621F9D
:100DF000739FB00DA11D621F839FA00D611D221F57
:100E0000749F3327A00D611D231F849F600D211D3A
:100E1000822F762F6A2F11249F5750409AF0F1F0BD
:100E200088234AF0EE0FFF1FBB1F661F771F881F26
:100E300091505040A9F79E3F510580F00C947206E6
:100E40000C94BD065F3FE4F3983ED4F38695779506
:100E50006795B795F795E7959F5FC1F7FE2B880FCC
:100E6000911D9695879597F908950E944E06880BD7
:100E7000990B089581E090E0F8940C943F07F89462
:020E8000FFCFA2
:100E8200000000002A01A600F300D100E500710174
:100E92006E616E00696E66006F7666002E000D0A46
:020EA20000004E
:107E0000112484B714BE81FFF0D085E080938100F7
:107E100082E08093C00088E18093C10086E0809377
:107E2000C20080E18093C4008EE0C9D0259A86E02C
:107E300020E33CEF91E0309385002093840096BBD3
:107E4000B09BFECF1D9AA8958150A9F7CC24DD24C4
:107E500088248394B5E0AB2EA1E19A2EF3E0BF2EE7
:107E6000A2D0813461F49FD0082FAFD0023811F036
:107E7000013811F484E001C083E08DD089C08234E0
:107E800011F484E103C0853419F485E0A6D080C0E4
:107E9000853579F488D0E82EFF2485D0082F10E0AE
:107EA000102F00270E291F29000F111F8ED06801E7
:107EB0006FC0863521F484E090D080E0DECF843638
:107EC00009F040C070D06FD0082F6DD080E0C81688
:107ED00080E7D80618F4F601B7BEE895C0E0D1E017
:107EE00062D089930C17E1F7F0E0CF16F0E7DF06D8
:107EF00018F0F601B7BEE89568D007B600FCFDCFD4
:107F0000A601A0E0B1E02C9130E011968C91119780
:107F100090E0982F8827822B932B1296FA010C0160
:107F200087BEE89511244E5F5F4FF1E0A038BF0790
:107F300051F7F601A7BEE89507B600FCFDCF97BE46
:107F4000E89526C08437B1F42ED02DD0F82E2BD052
:107F50003CD0F601EF2C8F010F5F1F4F84911BD097
:107F6000EA94F801C1F70894C11CD11CFA94CF0C13
:107F7000D11C0EC0853739F428D08EE10CD085E9AC
:107F80000AD08FE07ACF813511F488E018D01DD067
:107F900080E101D065CF982F8091C00085FFFCCF94
:107FA0009093C60008958091C00087FFFCCF809118
:107FB000C00084FD01C0A8958091C6000895E0E648
:107FC000F0E098E1908380830895EDDF803219F02E
:107FD00088E0F5DFFFCF84E1DECF1F93182FE3DFCA
:107FE0001150E9F7F2DF1F91089580E0E8DFEE27F6
:047FF000FF270994CA
:027FFE00040479
:0400000300007E007B
:00000001FF
