:100000000C945D000C9485000C9485000C94850084
:100010000C9485000C9485000C9485000C9485004C
:100020000C9485000C9485000C9485000C9485003C
:100030000C9485000C9485000C9485000C9485002C
:100040000C94B1020C9485000C947F020C9459021C
:100050000C9485000C9485000C9485000C9485000C
:100060000C9485000C94850000000008000201003B
:100070000003040700000000000000000000000072
:10008000250028002B0000000000240027002A0083
:10009000040404040404040402020202020203032E
:1000A0000303030301020408102040800102040836
:1000B0001020010204081020C50411241FBECFEF38
:1000C000D8E0DEBFCDBF11E0A0E0B1E0EEEFF9E097
:1000D00002C005900D92A031B107D9F722E0A0E14E
:1000E000B1E001C01D92AC31B207E1F710E0CDE5FF
:1000F000D0E004C02197FE010E94F204CC35D10764
:10010000C9F70E94FB020C94FD040C940000CF92EE
:10011000DF92EF92FF920F931F93CF93DF936C01C7
:100120007A018B01C0E0D0E0CE15DF0589F0D8015F
:100130006D918D01D601ED91FC910190F081E02D42
:10014000C6010995892B11F47E0102C02196ECCFDE
:10015000C701DF91CF911F910F91FF90EF90DF903A
:10016000CF900895FC01918D828D981761F0828D5A
:10017000DF01A80FB11D5D968C91928D9F5F9F73DB
:10018000928F90E008958FEF9FEF0895FC01918D7D
:10019000828D981731F0828DE80FF11D858D90E0EA
:1001A00008958FEF9FEF0895FC01918D228D892F87
:1001B00090E0805C9F4F821B91098F73992708956F
:1001C0008FE791E00E94D40021E0892B09F420E020
:1001D000822F0895FC01848DDF01A80FB11DA35A61
:1001E000BF4F2C91848D90E001968F739927848F57
:1001F000A689B7892C93A089B1898C9180648C934E
:10020000938D848D981306C00288F389E02D808138
:100210008F7D80830895EF92FF920F931F93CF936A
:10022000DF93EC0181E0888F9B8D8C8D981305C046
:10023000E889F989808185FD24C0F62E0B8D10E0B8
:100240000F5F1F4F0F731127E02E8C8DE8120CC02B
:100250000FB607FCFACFE889F989808185FFF5CFD1
:10026000CE010E94EA00F1CF8B8DFE01E80FF11D57
:10027000E35AFF4FF0820B8FEA89FB89808180620D
:1002800007C0EE89FF896083E889F98980818064ED
:10029000808381E090E0DF91CF911F910F91FF90DB
:1002A000EF900895CF93DF93EC01888D8823C9F0F8
:1002B000EA89FB89808185FD05C0A889B9898C916F
:1002C00086FD0FC00FB607FCF5CF808185FFF2CF0A
:1002D000A889B9898C9185FFEDCFCE010E94EA00F3
:1002E000E7CFDF91CF91089580E090E0892B29F04E
:1002F0000E94E00081110C940000089590E0FC0140
:10030000E859FF4F3491FC01EC55FF4F2491FC015B
:10031000E057FF4FE491EE2309F43BC0332339F15A
:10032000333091F038F43130A9F0323001F584B532
:100330008F7D12C0373091F03830A1F03430B9F4ED
:10034000809180008F7D03C0809180008F778093A3
:1003500080000DC084B58F7784BD09C08091B00046
:100360008F7703C08091B0008F7D8093B000F0E064
:10037000EE0FFF1FE458FF4FA591B4918FB7F8948B
:10038000EC91611103C020952E2301C02E2B2C93DC
:100390008FBF08953FB7F894809115019091160191
:1003A000A0911701B091180126B5A89B05C02F3F59
:1003B00019F00196A11DB11D3FBFBA2FA92F982F8B
:1003C0008827820F911DA11DB11DBC01CD0142E006
:1003D000660F771F881F991F4A95D1F708958F924E
:1003E0009F92AF92BF92CF92DF92EF92FF926B01FA
:1003F0007C010E94CA014B015C01C114D104E104DB
:10040000F104F1F00E94CA01DC01CB0188199909BD
:10041000AA09BB09883E9340A105B10570F321E00C
:10042000C21AD108E108F10888EE880E83E0981E10
:10043000A11CB11CC114D104E104F10419F7DDCFF2
:10044000FF90EF90DF90CF90BF90AF909F908F90F4
:1004500008956CE271E080E090E00C94EF0161E0BF
:100460008DE00E947E016CE271E080E090E00E94ED
:10047000EF0160E08DE00E947E0164E670E080E0C4
:1004800090E00C94EF0161E08DE00E947E0164E653
:1004900070E080E090E00E94EF0160E08DE00E945B
:1004A0007E0164E670E080E090E00C94EF010E9431
:1004B000F8041F920F920FB60F9211242F933F93BF
:1004C0004F935F936F937F938F939F93AF93BF935C
:1004D000EF93FF938FE791E00E94EA00FF91EF9185
:1004E000BF91AF919F918F917F916F915F914F914C
:1004F0003F912F910F900FBE0F901F9018951F9254
:100500000F920FB60F9211242F938F939F93EF9317
:10051000FF93E0918F01F09190018081E09195012E
:10052000F091960182FD12C09081809198018F5FB9
:100530008F7320919901821751F0E0919801F0E0BA
:10054000E158FE4F958F8093980101C08081FF9103
:10055000EF919F918F912F910F900FBE0F901F9051
:1005600018951F920F920FB60F9211242F933F935D
:100570008F939F93AF93BF9380911101909112013C
:10058000A0911301B09114013091100123E0230FC9
:100590002D3720F40196A11DB11D05C026E8230FBB
:1005A0000296A11DB11D209310018093110190931B
:1005B0001201A0931301B093140180911501909141
:1005C0001601A0911701B09118010196A11DB11D4E
:1005D0008093150190931601A0931701B093180111
:1005E000BF91AF919F918F913F912F910F900FBE2F
:1005F0000F901F901895789484B5826084BD84B55F
:10060000816084BD85B5826085BD85B5816085BD0D
:1006100080916E00816080936E00109281008091C5
:10062000810082608093810080918100816080934D
:100630008100809180008160809380008091B10072
:1006400084608093B1008091B00081608093B0009D
:1006500080917A00846080937A0080917A00826031
:1006600080937A0080917A00816080937A008091F3
:100670007A00806880937A001092C100E1EBF0E08C
:100680002491EDE9F0E08491882399F090E0880FBF
:10069000991FFC01EA57FF4FA591B491FC01E45862
:1006A000FF4F859194918FB7F894EC91E22BEC93E6
:1006B0008FBFE0918F01F091900182E08083E09103
:1006C0008B01F0918C011082E0918D01F0918E01EF
:1006D0008FEC808310929701E0919301F091940147
:1006E00086E08083E0919101F091920180818061A8
:1006F0008083E0919101F0919201808188608083F4
:10070000E0919101F0919201808180688083E09175
:100710009101F091920180818F7D80838FE791E03C
:100720000E94D400892B09F42DC100917D01109104
:100730007E018FE791E00E94B200682FF801E75E2A
:10074000FE4F8083E0917F01F09180010190F08164
:10075000E02D8FE791E0099500917D0110917E01D8
:10076000F801E75EFE4F80818A3009F005C189E11A
:10077000E82E81E0F82EC70189519140801791073A
:100780000CF0F5C0F701C1917F018C2F8F7D813472
:1007900009F468C0823419F40E942F0246C08334E1
:1007A00019F40E942F023AC08434E1F0853409F430
:1007B00040C0863419F40E94430230C0873411F1DE
:1007C000883419F40E94430230C0893481F18A349C
:1007D00019F40E9443020FC08B34D9F08C3429F4F1
:1007E0000E9443020E942F0222C08D3491F18E3468
:1007F000B9F08F3419F40E942F022BC0803529F4F0
:100800000E9443020E942F020BC0813529F40E94EE
:100810002F020E942F0226C0823529F40E94430233
:100820000E942F0206C0833539F40E9443020E94C1
:1008300043020E9443021AC08435B1F0853581F02D
:10084000863519F40E9443020BC0873529F40E94B3
:1008500043020E942F0208C0883559F40E942F02DB
:100860000E9443020E9443020E942F020E9429021A
:1008700018C0893549F40E942F020E9443020E9449
:100880002F020E942F020AC08A3559F40E942F02BB
:100890000E942F020E9443020E9443020E942902EA
:1008A00005C0C13319F40E94430254C0C23369F435
:1008B0000E9443020E9443020E942F020E942F02C4
:1008C0000E942F020E94290256CFC33339F40E949E
:1008D00043020E9443020E944302F0CFC43349F412
:1008E0000E9443020E9443020E9443020E9443026C
:1008F000E7CFC53319F40E94430204C0C63329F47C
:100900000E942F020E94430206C0C73339F40E949E
:100910002F020E942F020E94430208C0C83349F4EC
:100920000E942F020E942F020E942F020E94430267
:100930000AC0C93359F40E942F020E942F020E945C
:100940002F020E942F020E944302BCCFC03329F421
:100950000E942F020E942F02AFCFC03209F00BCFAE
:100960006CEB72E080E090E00E94EF0104CF109207
:100970007E0110927D0106C00F5F1F4F10937E0114
:1009800000937D010E947401C9CEEFE7F1E013826C
:10099000128288EE93E0A0E0B0E084839583A68382
:1009A000B78384E091E09183808385EC90E0958724
:1009B000848784EC90E09787868780EC90E0918B29
:1009C000808B81EC90E0938B828B82EC90E0958B16
:1009D000848B86EC90E0978B868B118E128E138E13
:1009E000148E0895EE0FFF1F0590F491E02D0994E9
:0E09F00081E090E0F8940C94FD04F894FFCFA1
:1009FE00000000000B018700D400B200C6005201B7
:00000001FF
